{
  "contractName": "Crowdfunding",
  "abi": [
    {
      "inputs": [],
      "stateMutability": "nonpayable",
      "type": "constructor"
    },
    {
      "inputs": [
        {
          "internalType": "uint256",
          "name": "",
          "type": "uint256"
        }
      ],
      "name": "campaigns",
      "outputs": [
        {
          "internalType": "address payable",
          "name": "creator",
          "type": "address"
        },
        {
          "internalType": "string",
          "name": "title",
          "type": "string"
        },
        {
          "internalType": "string",
          "name": "description",
          "type": "string"
        },
        {
          "internalType": "uint256",
          "name": "goal",
          "type": "uint256"
        },
        {
          "internalType": "uint256",
          "name": "deadline",
          "type": "uint256"
        },
        {
          "internalType": "string",
          "name": "image",
          "type": "string"
        },
        {
          "internalType": "uint256",
          "name": "raised",
          "type": "uint256"
        },
        {
          "internalType": "bool",
          "name": "complete",
          "type": "bool"
        }
      ],
      "stateMutability": "view",
      "type": "function",
      "constant": true
    },
    {
      "inputs": [],
      "name": "numCampaigns",
      "outputs": [
        {
          "internalType": "uint256",
          "name": "",
          "type": "uint256"
        }
      ],
      "stateMutability": "view",
      "type": "function",
      "constant": true
    },
    {
      "inputs": [
        {
          "internalType": "string",
          "name": "_title",
          "type": "string"
        },
        {
          "internalType": "string",
          "name": "_description",
          "type": "string"
        },
        {
          "internalType": "uint256",
          "name": "_goal",
          "type": "uint256"
        },
        {
          "internalType": "uint256",
          "name": "_deadline",
          "type": "uint256"
        },
        {
          "internalType": "string",
          "name": "_image",
          "type": "string"
        }
      ],
      "name": "createCampaign",
      "outputs": [
        {
          "internalType": "uint256",
          "name": "",
          "type": "uint256"
        },
        {
          "internalType": "address",
          "name": "",
          "type": "address"
        },
        {
          "internalType": "string",
          "name": "",
          "type": "string"
        },
        {
          "internalType": "string",
          "name": "",
          "type": "string"
        },
        {
          "internalType": "uint256",
          "name": "",
          "type": "uint256"
        },
        {
          "internalType": "uint256",
          "name": "",
          "type": "uint256"
        },
        {
          "internalType": "string",
          "name": "",
          "type": "string"
        },
        {
          "internalType": "uint256",
          "name": "",
          "type": "uint256"
        },
        {
          "internalType": "bool",
          "name": "",
          "type": "bool"
        }
      ],
      "stateMutability": "nonpayable",
      "type": "function"
    },
    {
      "inputs": [
        {
          "internalType": "uint256",
          "name": "_campaignIndex",
          "type": "uint256"
        }
      ],
      "name": "contribute",
      "outputs": [],
      "stateMutability": "payable",
      "type": "function",
      "payable": true
    },
    {
      "inputs": [
        {
          "internalType": "uint256",
          "name": "_campaignIndex",
          "type": "uint256"
        }
      ],
      "name": "getContribute",
      "outputs": [
        {
          "internalType": "address[]",
          "name": "",
          "type": "address[]"
        },
        {
          "internalType": "uint256[]",
          "name": "",
          "type": "uint256[]"
        }
      ],
      "stateMutability": "view",
      "type": "function",
      "constant": true
    },
    {
      "inputs": [],
      "name": "getCampaigns",
      "outputs": [
        {
          "internalType": "address[]",
          "name": "",
          "type": "address[]"
        },
        {
          "internalType": "string[]",
          "name": "",
          "type": "string[]"
        },
        {
          "internalType": "string[]",
          "name": "",
          "type": "string[]"
        },
        {
          "internalType": "uint256[]",
          "name": "",
          "type": "uint256[]"
        },
        {
          "internalType": "uint256[]",
          "name": "",
          "type": "uint256[]"
        },
        {
          "internalType": "string[]",
          "name": "",
          "type": "string[]"
        },
        {
          "internalType": "uint256[]",
          "name": "",
          "type": "uint256[]"
        },
        {
          "internalType": "bool[]",
          "name": "",
          "type": "bool[]"
        }
      ],
      "stateMutability": "view",
      "type": "function",
      "constant": true
    }
  ],
  "bytecode": "0x608060405234801561001057600080fd5b50336000806101000a81548173ffffffffffffffffffffffffffffffffffffffff021916908373ffffffffffffffffffffffffffffffffffffffff160217905550611f58806100606000396000f3fe6080604052600436106100555760003560e01c8063141961bc1461005a5780632c0f7b6f1461009e578063a6b03633146100c9578063c1cbbca7146100fb578063d4e3dd6f14610117578063dd4bee201461015c575b600080fd5b34801561006657600080fd5b50610081600480360381019061007c9190611108565b61019a565b604051610095989796959493929190611230565b60405180910390f35b3480156100aa57600080fd5b506100b36103a7565b6040516100c091906112c3565b60405180910390f35b3480156100d557600080fd5b506100de6103ad565b6040516100f2989796959493929190611636565b60405180910390f35b61011560048036038101906101109190611108565b6109b9565b005b34801561012357600080fd5b5061013e60048036038101906101399190611821565b610c4d565b604051610153999897969594939291906118ff565b60405180910390f35b34801561016857600080fd5b50610183600480360381019061017e9190611108565b610fac565b6040516101919291906119a1565b60405180910390f35b60026020528060005260406000206000915090508060000160009054906101000a900473ffffffffffffffffffffffffffffffffffffffff16908060010180546101e390611a07565b80601f016020809104026020016040519081016040528092919081815260200182805461020f90611a07565b801561025c5780601f106102315761010080835404028352916020019161025c565b820191906000526020600020905b81548152906001019060200180831161023f57829003601f168201915b50505050509080600201805461027190611a07565b80601f016020809104026020016040519081016040528092919081815260200182805461029d90611a07565b80156102ea5780601f106102bf576101008083540402835291602001916102ea565b820191906000526020600020905b8154815290600101906020018083116102cd57829003601f168201915b50505050509080600301549080600401549080600501805461030b90611a07565b80601f016020809104026020016040519081016040528092919081815260200182805461033790611a07565b80156103845780601f1061035957610100808354040283529160200191610384565b820191906000526020600020905b81548152906001019060200180831161036757829003601f168201915b50505050509080600601549080600a0160009054906101000a900460ff16905088565b60015481565b606080606080606080606080600060015467ffffffffffffffff8111156103d7576103d66116f6565b5b6040519080825280602002602001820160405280156104055781602001602082028036833780820191505090505b509050600060015467ffffffffffffffff811115610426576104256116f6565b5b60405190808252806020026020018201604052801561045957816020015b60608152602001906001900390816104445790505b509050600060015467ffffffffffffffff81111561047a576104796116f6565b5b6040519080825280602002602001820160405280156104ad57816020015b60608152602001906001900390816104985790505b509050600060015467ffffffffffffffff8111156104ce576104cd6116f6565b5b6040519080825280602002602001820160405280156104fc5781602001602082028036833780820191505090505b509050600060015467ffffffffffffffff81111561051d5761051c6116f6565b5b60405190808252806020026020018201604052801561054b5781602001602082028036833780820191505090505b509050600060015467ffffffffffffffff81111561056c5761056b6116f6565b5b60405190808252806020026020018201604052801561059f57816020015b606081526020019060019003908161058a5790505b509050600060015467ffffffffffffffff8111156105c0576105bf6116f6565b5b6040519080825280602002602001820160405280156105ee5781602001602082028036833780820191505090505b509050600060015467ffffffffffffffff81111561060f5761060e6116f6565b5b60405190808252806020026020018201604052801561063d5781602001602082028036833780820191505090505b50905060005b60015481101561098e5760006002600083815260200190815260200160002090508060000160009054906101000a900473ffffffffffffffffffffffffffffffffffffffff168a838151811061069c5761069b611a38565b5b602002602001019073ffffffffffffffffffffffffffffffffffffffff16908173ffffffffffffffffffffffffffffffffffffffff16815250508060010180546106e590611a07565b80601f016020809104026020016040519081016040528092919081815260200182805461071190611a07565b801561075e5780601f106107335761010080835404028352916020019161075e565b820191906000526020600020905b81548152906001019060200180831161074157829003601f168201915b505050505089838151811061077657610775611a38565b5b602002602001018190525080600201805461079090611a07565b80601f01602080910402602001604051908101604052809291908181526020018280546107bc90611a07565b80156108095780601f106107de57610100808354040283529160200191610809565b820191906000526020600020905b8154815290600101906020018083116107ec57829003601f168201915b505050505088838151811061082157610820611a38565b5b6020026020010181905250806003015487838151811061084457610843611a38565b5b602002602001018181525050806004015486838151811061086857610867611a38565b5b60200260200101818152505080600501805461088390611a07565b80601f01602080910402602001604051908101604052809291908181526020018280546108af90611a07565b80156108fc5780601f106108d1576101008083540402835291602001916108fc565b820191906000526020600020905b8154815290600101906020018083116108df57829003601f168201915b505050505085838151811061091457610913611a38565b5b6020026020010181905250806006015484838151811061093757610936611a38565b5b60200260200101818152505080600a0160009054906101000a900460ff1683838151811061096857610967611a38565b5b60200260200101901515908115158152505050808061098690611a96565b915050610643565b5087878787878787879f509f509f509f509f509f509f509f5050505050505050509091929394959697565b600060026000838152602001908152602001600020905080600a0160009054906101000a900460ff1615610a22576040517f08c379a0000000000000000000000000000000000000000000000000000000008152600401610a1990611b2a565b60405180910390fd5b80600801339080600181540180825580915050600190039060005260206000200160009091909190916101000a81548173ffffffffffffffffffffffffffffffffffffffff021916908373ffffffffffffffffffffffffffffffffffffffff16021790555080600901349080600181540180825580915050600190039060005260206000200160009091909190915055348160070160003373ffffffffffffffffffffffffffffffffffffffff1673ffffffffffffffffffffffffffffffffffffffff1681526020019081526020016000206000828254610b039190611b4a565b9250508190555034816006016000828254610b1e9190611b4a565b925050819055508060030154816006015410610c4957600181600a0160006101000a81548160ff021916908315150217905550600060148260060154610b649190611bad565b90508160000160009054906101000a900473ffffffffffffffffffffffffffffffffffffffff1673ffffffffffffffffffffffffffffffffffffffff166108fc828460060154610bb49190611bde565b9081150290604051600060405180830381858888f19350505050158015610bdf573d6000803e3d6000fd5b5060008054906101000a900473ffffffffffffffffffffffffffffffffffffffff1673ffffffffffffffffffffffffffffffffffffffff166108fc829081150290604051600060405180830381858888f19350505050158015610c46573d6000803e3d6000fd5b50505b5050565b60008060608060008060606000806000600260006001548152602001908152602001600020905042816004015410610cba576040517f08c379a0000000000000000000000000000000000000000000000000000000008152600401610cb190611c84565b60405180910390fd5b338160000160006101000a81548173ffffffffffffffffffffffffffffffffffffffff021916908373ffffffffffffffffffffffffffffffffffffffff1602179055508e816001019081610d0e9190611e50565b508d816002019081610d209190611e50565b508c81600301819055508b81600401819055508a816005019081610d449190611e50565b5060008160060181905550600081600a0160006101000a81548160ff02191690831515021790555060016000815480929190610d7f90611a96565b919050555060018054610d929190611bde565b8160000160009054906101000a900473ffffffffffffffffffffffffffffffffffffffff1682600101836002018460030154856004015486600501876006015488600a0160009054906101000a900460ff16868054610df090611a07565b80601f0160208091040260200160405190810160405280929190818152602001828054610e1c90611a07565b8015610e695780601f10610e3e57610100808354040283529160200191610e69565b820191906000526020600020905b815481529060010190602001808311610e4c57829003601f168201915b50505050509650858054610e7c90611a07565b80601f0160208091040260200160405190810160405280929190818152602001828054610ea890611a07565b8015610ef55780601f10610eca57610100808354040283529160200191610ef5565b820191906000526020600020905b815481529060010190602001808311610ed857829003601f168201915b50505050509550828054610f0890611a07565b80601f0160208091040260200160405190810160405280929190818152602001828054610f3490611a07565b8015610f815780601f10610f5657610100808354040283529160200191610f81565b820191906000526020600020905b815481529060010190602001808311610f6457829003601f168201915b5050505050925099509950995099509950995099509950995050959b50959b50959b92985095509550565b60608060026000848152602001908152602001600020600801600260008581526020019081526020016000206009018180548060200260200160405190810160405280929190818152602001828054801561105c57602002820191906000526020600020905b8160009054906101000a900473ffffffffffffffffffffffffffffffffffffffff1673ffffffffffffffffffffffffffffffffffffffff1681526020019060010190808311611012575b50505050509150808054806020026020016040519081016040528092919081815260200182805480156110ae57602002820191906000526020600020905b81548152602001906001019080831161109a575b5050505050905091509150915091565b6000604051905090565b600080fd5b600080fd5b6000819050919050565b6110e5816110d2565b81146110f057600080fd5b50565b600081359050611102816110dc565b92915050565b60006020828403121561111e5761111d6110c8565b5b600061112c848285016110f3565b91505092915050565b600073ffffffffffffffffffffffffffffffffffffffff82169050919050565b600061116082611135565b9050919050565b61117081611155565b82525050565b600081519050919050565b600082825260208201905092915050565b60005b838110156111b0578082015181840152602081019050611195565b60008484015250505050565b6000601f19601f8301169050919050565b60006111d882611176565b6111e28185611181565b93506111f2818560208601611192565b6111fb816111bc565b840191505092915050565b61120f816110d2565b82525050565b60008115159050919050565b61122a81611215565b82525050565b600061010082019050611246600083018b611167565b8181036020830152611258818a6111cd565b9050818103604083015261126c81896111cd565b905061127b6060830188611206565b6112886080830187611206565b81810360a083015261129a81866111cd565b90506112a960c0830185611206565b6112b660e0830184611221565b9998505050505050505050565b60006020820190506112d86000830184611206565b92915050565b600081519050919050565b600082825260208201905092915050565b6000819050602082019050919050565b600061131582611135565b9050919050565b6113258161130a565b82525050565b6000611337838361131c565b60208301905092915050565b6000602082019050919050565b600061135b826112de565b61136581856112e9565b9350611370836112fa565b8060005b838110156113a1578151611388888261132b565b975061139383611343565b925050600181019050611374565b5085935050505092915050565b600081519050919050565b600082825260208201905092915050565b6000819050602082019050919050565b600082825260208201905092915050565b60006113f682611176565b61140081856113da565b9350611410818560208601611192565b611419816111bc565b840191505092915050565b600061143083836113eb565b905092915050565b6000602082019050919050565b6000611450826113ae565b61145a81856113b9565b93508360208202850161146c856113ca565b8060005b858110156114a857848403895281516114898582611424565b945061149483611438565b925060208a01995050600181019050611470565b50829750879550505050505092915050565b600081519050919050565b600082825260208201905092915050565b6000819050602082019050919050565b6114ef816110d2565b82525050565b600061150183836114e6565b60208301905092915050565b6000602082019050919050565b6000611525826114ba565b61152f81856114c5565b935061153a836114d6565b8060005b8381101561156b57815161155288826114f5565b975061155d8361150d565b92505060018101905061153e565b5085935050505092915050565b600081519050919050565b600082825260208201905092915050565b6000819050602082019050919050565b6115ad81611215565b82525050565b60006115bf83836115a4565b60208301905092915050565b6000602082019050919050565b60006115e382611578565b6115ed8185611583565b93506115f883611594565b8060005b8381101561162957815161161088826115b3565b975061161b836115cb565b9250506001810190506115fc565b5085935050505092915050565b6000610100820190508181036000830152611651818b611350565b90508181036020830152611665818a611445565b905081810360408301526116798189611445565b9050818103606083015261168d818861151a565b905081810360808301526116a1818761151a565b905081810360a08301526116b58186611445565b905081810360c08301526116c9818561151a565b905081810360e08301526116dd81846115d8565b90509998505050505050505050565b600080fd5b600080fd5b7f4e487b7100000000000000000000000000000000000000000000000000000000600052604160045260246000fd5b61172e826111bc565b810181811067ffffffffffffffff8211171561174d5761174c6116f6565b5b80604052505050565b60006117606110be565b905061176c8282611725565b919050565b600067ffffffffffffffff82111561178c5761178b6116f6565b5b611795826111bc565b9050602081019050919050565b82818337600083830152505050565b60006117c46117bf84611771565b611756565b9050828152602081018484840111156117e0576117df6116f1565b5b6117eb8482856117a2565b509392505050565b600082601f830112611808576118076116ec565b5b81356118188482602086016117b1565b91505092915050565b600080600080600060a0868803121561183d5761183c6110c8565b5b600086013567ffffffffffffffff81111561185b5761185a6110cd565b5b611867888289016117f3565b955050602086013567ffffffffffffffff811115611888576118876110cd565b5b611894888289016117f3565b94505060406118a5888289016110f3565b93505060606118b6888289016110f3565b925050608086013567ffffffffffffffff8111156118d7576118d66110cd565b5b6118e3888289016117f3565b9150509295509295909350565b6118f98161130a565b82525050565b600061012082019050611915600083018c611206565b611922602083018b6118f0565b8181036040830152611934818a6111cd565b9050818103606083015261194881896111cd565b90506119576080830188611206565b61196460a0830187611206565b81810360c083015261197681866111cd565b905061198560e0830185611206565b611993610100830184611221565b9a9950505050505050505050565b600060408201905081810360008301526119bb8185611350565b905081810360208301526119cf818461151a565b90509392505050565b7f4e487b7100000000000000000000000000000000000000000000000000000000600052602260045260246000fd5b60006002820490506001821680611a1f57607f821691505b602082108103611a3257611a316119d8565b5b50919050565b7f4e487b7100000000000000000000000000000000000000000000000000000000600052603260045260246000fd5b7f4e487b7100000000000000000000000000000000000000000000000000000000600052601160045260246000fd5b6000611aa1826110d2565b91507fffffffffffffffffffffffffffffffffffffffffffffffffffffffffffffffff8203611ad357611ad2611a67565b5b600182019050919050565b7f43616d706169676e20616c726561647920636f6d706c6574652e000000000000600082015250565b6000611b14601a83611181565b9150611b1f82611ade565b602082019050919050565b60006020820190508181036000830152611b4381611b07565b9050919050565b6000611b55826110d2565b9150611b60836110d2565b9250828201905080821115611b7857611b77611a67565b5b92915050565b7f4e487b7100000000000000000000000000000000000000000000000000000000600052601260045260246000fd5b6000611bb8826110d2565b9150611bc3836110d2565b925082611bd357611bd2611b7e565b5b828204905092915050565b6000611be9826110d2565b9150611bf4836110d2565b9250828203905081811115611c0c57611c0b611a67565b5b92915050565b7f54686520646561646c696e206d7573742062652061206461746520696e20746860008201527f65206675747572652e0000000000000000000000000000000000000000000000602082015250565b6000611c6e602983611181565b9150611c7982611c12565b604082019050919050565b60006020820190508181036000830152611c9d81611c61565b9050919050565b60008190508160005260206000209050919050565b60006020601f8301049050919050565b600082821b905092915050565b600060088302611d067fffffffffffffffffffffffffffffffffffffffffffffffffffffffffffffffff82611cc9565b611d108683611cc9565b95508019841693508086168417925050509392505050565b6000819050919050565b6000611d4d611d48611d43846110d2565b611d28565b6110d2565b9050919050565b6000819050919050565b611d6783611d32565b611d7b611d7382611d54565b848454611cd6565b825550505050565b600090565b611d90611d83565b611d9b818484611d5e565b505050565b5b81811015611dbf57611db4600082611d88565b600181019050611da1565b5050565b601f821115611e0457611dd581611ca4565b611dde84611cb9565b81016020851015611ded578190505b611e01611df985611cb9565b830182611da0565b50505b505050565b600082821c905092915050565b6000611e2760001984600802611e09565b1980831691505092915050565b6000611e408383611e16565b9150826002028217905092915050565b611e5982611176565b67ffffffffffffffff811115611e7257611e716116f6565b5b611e7c8254611a07565b611e87828285611dc3565b600060209050601f831160018114611eba5760008415611ea8578287015190505b611eb28582611e34565b865550611f1a565b601f198416611ec886611ca4565b60005b82811015611ef057848901518255600182019150602085019450602081019050611ecb565b86831015611f0d5784890151611f09601f891682611e16565b8355505b6001600288020188555050505b50505050505056fea2646970667358221220a443484453926a86eaf7ca7aa499a917f64ff783ccafcae58e162878367b1ba264736f6c63430008110033",
  "immutableReferences": {},
  "source": "// SPDX-License-Identifier: MIT\npragma solidity ^0.8.0;\n\n\ncontract Crowdfunding {\n    struct Campaign {\n        address payable creator;\n        string title;\n        string description;\n        uint goal;\n        uint deadline;\n        string image;\n        uint raised;\n        mapping(address => uint) contributions;\n        address[] donators;\n        uint[] donations;\n        bool complete;\n\n    }\n    address payable owner;\n\n    constructor(){\n        owner= payable(msg.sender);\n    }\n    uint public numCampaigns;\n\n    mapping (uint => Campaign) public campaigns;\n    \n   \n    function createCampaign(string memory _title, string memory _description, uint _goal,\n     uint _deadline, string memory _image) public returns(uint, address , string memory, string memory,uint ,uint ,string memory,uint,bool ) {\n        Campaign storage c = campaigns[numCampaigns];\n\n        require(c.deadline < block.timestamp, \"The deadlin must be a date in the future.\");\n\n        c.creator = payable(msg.sender);\n        c.title = _title;\n        c.description = _description;\n        c.goal = _goal;\n        c.deadline = _deadline;\n        c.image = _image;\n        c.raised = 0 ;\n        c.complete = false;\n\n        numCampaigns++;\n\n        return (numCampaigns -1,c.creator,c.title,c.description,c.goal,c.deadline,c.image,c.raised,c.complete);\n        }\n    \n    \n\n    function contribute(uint _campaignIndex) public payable {\n        Campaign storage campaign = campaigns[_campaignIndex];\n        require(!campaign.complete, \"Campaign already complete.\");\n        campaign.donators.push(msg.sender);\n        campaign.donations.push(msg.value);\n        campaign.contributions[msg.sender] += msg.value;\n        campaign.raised += msg.value;\n        if (campaign.raised >= campaign.goal) {\n            campaign.complete = true;\n            uint ownerTax = campaign.raised / 20; // 5% tax is 1/20th of the contribution\n            campaign.creator.transfer(campaign.raised - ownerTax); // transfer contribution minus the owner tax\n            owner.transfer(ownerTax); // transfer the owner tax to the owner\n            \n        }\n    }\n\n    function getContribute(uint _campaignIndex) view public returns (address[] memory, uint[] memory){\n        return (campaigns[_campaignIndex].donators, campaigns[_campaignIndex].donations);\n    }\n\n\n    function getCampaigns() view public returns (address[] memory, string[] memory, string[] memory, uint[] memory, uint[] memory, string[] memory, uint[] memory, bool[] memory) {\n        address[] memory creators = new address[](numCampaigns);\n        string[] memory titles = new string[](numCampaigns);\n        string[] memory descriptions = new string[](numCampaigns);\n        uint[] memory goals = new uint[](numCampaigns);\n        uint[] memory deadlines = new uint[](numCampaigns);\n        string[] memory images = new string[](numCampaigns);\n        uint[] memory raisedAmounts = new uint[](numCampaigns);\n        bool[] memory isComplete = new bool[](numCampaigns);\n        \n        for (uint i = 0; i < numCampaigns; i++) {\n            Campaign storage campaign = campaigns[i];\n            creators[i] = campaign.creator;\n            titles[i] = campaign.title;\n            descriptions[i] = campaign.description;\n            goals[i] = campaign.goal;\n            deadlines[i] = campaign.deadline;\n            images[i] = campaign.image;\n            raisedAmounts[i] = campaign.raised;\n            isComplete[i] = campaign.complete;\n        }\n        \n        return (creators, titles, descriptions, goals, deadlines, images, raisedAmounts, isComplete);\n    }\n\n\n\n}\n\n\n\n//  \n//truffle migrate --reset \n//     \n//truffle console\n//  \n//const instance = await Crowdfunding.deployed()\n\n//instance.createCampaign(\"A\",\"aa\",\"50\",\"6\",\"aaaa\", {from: accounts[0]})\n//instance.createCampaign(\"B\",\"bb\",\"40\",\"5\",\"bbbb\", {from: accounts[1]})\n//instance.getCampaigns()\n\n//instance.contribute(\"1\",{value:\"500000000000000000\", from: accounts[1]})\n//instance.getContribute(\"1\")\n\n\n\n\n\n\n\n",
  "sourcePath": "C:\\workspace\\crowdfundingRYDE-master\\contracts\\crowdfunding.sol",
  "compiler": {
    "name": "solc",
    "version": "0.8.17+commit.8df45f5f.Emscripten.clang"
  },
  "schemaVersion": "3.4.16",
  "updatedAt": "2024-04-27T10:31:55.954Z",
  "networkType": "ethereum",
  "devdoc": {
    "kind": "dev",
    "methods": {},
    "version": 1
  },
  "userdoc": {
    "kind": "user",
    "methods": {},
    "version": 1
  }
}